:040000000C940A0151
:040048000C94530AB7
:040050000C94C40A3E
:14008C0000007A440000C84200001041000020410000C642DE
:1400A00000C07944ACC52737323031313130313233303030B5
:1400B4000000000000000000323031313130303935303030E5
:1400C800000000000000000000000000000000000000000024
:1400DC000000000000000000000000000000000000000044CC
:1400F0005331384232300A004745542054484520535452494F
:140104004E473A0A00474F4F445F4558500A0000546865204E
:14011800737472696E67207772697474656E20746F20746810
:14012C006520415432344330312069733A2022474F4F445F9B
:14014000455850220A00757064617465207468652070636655
:1401540020646174615F746F206E6F772074696D650A0072DC
:1401680065616420746865207063665F696E69745F646174F4
:14017C00615F656E640A007265616420746865207063665FB9
:14019000696E69745F646174610A0042555A5A5F4B45595FB2
:1401A400746573740A00534547375F746573740A006C656409
:1401B8005F746573740A0000007777772E61767276692E63BE
:1401CC006F6D003F065B4F666D7D077F6F777C395E7971009B
:1401E00000003F3F3F0A003F3F210A0054656D703A2020206B
:1401F40020202020202000000001010202030404050606070E
:0B0208000708090900000000000000CA
:14021400CFEFD0E1CDBFDEBFCE51D0400AEA08830024EBE69B
:14022800F2E013E0E836F10711F00192FBCF0083E8EAF0E064
:14023C00A0E0B1E012E000E00BBFE331F10721F0C8953196C0
:140250000D92F9CF0E94D503FFCF0E945D0D4427222420927C
:1402640046012EC020904601E22DFF27EE0FFF1FE00FF11F0B
:14027800808180538F708295807FEFE7F2E0A22DBB27AE0F73
:14028C00BF1F8C93209046018FE792E0A22CBB24A80EB91E48
:1402A000E22DFF27EE0FFF1FE00FF11F818180538F70F50131
:1402B4002080282A2082809146018F5F8093460180914601AA
:1402C800863008F4CDCF442711C0242E3324E5E0F0E0E2195F
:1402DC00F3098FE792E0E80FF91F2080E42FFF27E00FF11F43
:1402F00020824395463068F30C94620D4A935A93A8018A01A2
:14030400AADFFA012081332702E00E941805FA0121813327CE
:1403180003E00E941805FA012281332704E00E941805FA0199
:14032C002381332705E00E9418052227332706E00E941805D3
:14034000FA012481332707E00E941805FA012581332708E026
:140354000E9418050E9427065991499108954A935A93F801E3
:1403680080818F778083CF010196FC0180818F778083C80140
:14037C000296FC0180818F738083A8014D5F5F4FFA018081D3
:140390008F738083A8014C5F5F4FFA01808187708083A801B3
:1403A4004B5F5F4FFA0180818F7180835991499108950E94EB
:1403B8005D0D580122242092460144272FC020904601332487
:1403CC00822D8F5F80934601E42FFF27EA0DFB1D80818295C6
:1403E0008F70805DEFE7F2E0A22DBB27AE0FBF1F8C9320906A
:1403F40046013324822D8F5F80934601E42FFF27EA0DFB1D18
:14040800008110E10E94F60C802F805DEFE7F2E0A22DBB27E5
:14041C00AE0FBF1F8C934395473008F4CECF8FE792E0E091D1
:140430004601FF27E80FF91F2224208244270DC08FE792E034
:14044400E42FFF27E80FF91F2080E42FFF27EA0DFB1D2082D2
:1404580043958FE792E0E42FFF27E80FF91F2080222051F75E
:14046C00E42FFF27EA0DFB1D222420820C94620DAA92CA92A5
:14048000CC24AA2402C0A394C394EC2DFF27E00FF11F20807C
:140494002220B9F70A2DC990A9900895AA92BA925801229762
:1404A8008501E8DF88E992E099838883202F85010E942E093B
:1404BC002296B990A99008950E94580DC22E5801229788E9DB
:1404D00092E0998388832C2D85010E947B0922960C94320DE3
:1404E4000E94670DA8012224209246013324822D8F5F8093FF
:1404F800460184E191E0E22DFF27E80FF91F82E38083209077
:14050C0046013324822D8F5F8093460184E191E0E22DFF273B
:14052000E80FF91F80E38083609146017727862F8F5F8093C6
:14053400460184E191E0E62FFF27E80FF91FDA011C962C9003
:140548002082609146017727862F8F5F8093460184E191E054
:14055C00E62FFF27E80FF91FDA011D962C902082609146011D
:140570007727862F8F5F8093460184E191E0E62FFF27E80FD4
:14058400F91F8DE28083609146017727862F8F5F8093460106
:1405980084E191E0E62FFF27E80FF91FDA011A962C90208246
:1405AC00609146017727862F8F5F8093460184E191E0E62F7D
:1405C000FF27E80FF91FDA011B962C90208260914601772732
:1405D400862F8F5F8093460184E191E0E62FFF27E80FF91FF6
:1405E8008DE28083609146017727862F8F5F8093460184E155
:1405FC0091E0E62FFF27E80FF91FDA0116962C90208260915A
:1406100046017727862F8F5F8093460184E191E0E62FFF27E3
:14062400E80FF91FDA0117962C902082609146017727862F42
:140638008F5F8093460184E191E0E62FFF27E80FF91F80E2E4
:14064C008083609146017727862F8F5F8093460184E191E0EE
:14066000E62FFF27E80FF91F80E28083609146017727862F4C
:140674008F5F8093460184E191E0E62FFF27E80FF91FDA012F
:1406880014962C902082609146017727862F8F5F8093460183
:14069C0084E191E0E62FFF27E80FF91FDA0115962C90208246
:1406B000609146017727862F8F5F8093460184E191E0E62F78
:1406C400FF27E80FF91F8AE38083609146017727862F8F5F04
:1406D8008093460184E191E0E62FFF27E80FF91FDA01129611
:1406EC002C902082609146017727862F8F5F8093460184E164
:1407000091E0E62FFF27E80FF91FDA0113962C902082609157
:1407140046017727862F8F5F8093460184E191E0E62FFF27DE
:14072800E80FF91F8AE38083609146017727862F8F5F8093B2
:14073C00460184E191E0E62FFF27E80FF91FDA012C90208209
:14075000609146017727862F8F5F8093460184E191E0E62FD7
:14076400FF27E80FF91F11962C902082409146015527842F00
:140778008F5F8093460184E191E0E42FFF27E80FF91F8AE09D
:14078C00808384E191E0E0914601FF27E80FF91F22242082AB
:1407A00004E111E07DDE0C946C0D229747E152E0AA24F8948E
:1407B4000E94DE080E940D0B78940DE012E06EDE8FEF83B9FE
:1407C80082B966270DC0222423B80CE211E00E948E068FEFD4
:1407DC0083B90CE211E00E948E066395633088F302E012E0DE
:1407F00057DE0E949C06662713C0AA240DC0262F332707E5E6
:1408040014E00E94220D0E94320701E010E00E948E06A39402
:140818008A2D883C80F363956A3058F303EF11E03BDE8FEF87
:14082C0082B983B90E94BA080E945306662771C0662309F0A2
:140840006FC00E94BF08A02EBB24C501803BE0E09E0709F47C
:1408540037C080EB8A159B0534F0C5018037E0E09E0799F060
:140868005AC0C501803DE0E09E0709F43CC0803DE0E09E075F
:14087C000CF44FC0C501803EE0E09E0709F440C048C087EFF5
:1408900083B922E330E004E610E00E945E0622E330E004E624
:1408A40010E00E945E0622E330E004E610E00E945E0622E350
:1408B80030E004E610E00E945E062DC08BEF83B922E330E084
:1408CC0004E610E00E945E0622E330E004E610E00E945E0643
:1408E00022E330E004E610E00E945E0618C08DEF83B922E37A
:1408F40030E004E610E00E945E0622E330E004E610E00E946F
:140908005E0609C08EEF83B922E330E004E610E00E945E0600
:14091C0061E08ECF0BED11E0BDDD87E090E09983888322E0A6
:1409300030E00BE612E00E9444060BE612E011DD0BE612E020
:1409440038DD0FEB11E0AADD0BE612E0C9DD0EE911E0A4DD26
:1409580000E011E0CFDC87E090E09983888322E030E00BE60E
:14096C0012E00E9444060BE612E0F5DC0BE612E01CDD0BE618
:1409800012E0B0DD0CE611E08BDD8AE090E09983888322274F
:14099400332701E611E00E94580500E511E07EDD8AE090E013
:1409A80099838883222733278A010E94BC058A0173DD07E4BD
:1409BC0011E070DD0E94C50BA02E0E94E50B04E412E068DDF8
:1409D000FFCFFFCF229608950E947F0D6901A801A884B601FE
:1409E400672F7727660F0E941B0B062F00560E94230B0831FA
:1409F80079F40C2D0E94230B07C0FA0100810E94230B4F5FB4
:140A0C005F4FAA9480E08A15B0F303C081E0809393020E94DA
:140A20003B0B06E010E00E948E068A010C94880DAA92CA9218
:140A34006901A02E2397CA8281E090E0998388832A2D3327C7
:140A48008E010E5F1F4F04D02396C990A99008950E947F0D46
:140A5C006901A801A884B601672F7727660F0E941B0B062FEA
:140A70000E550E94230B083179F40C2D0E94230B07C0FA01CE
:140A840000810E94230B4F5F5F4FAA9480E08A15B0F303C00E
:140A980081E0809393020E943B0B06E010E00E948E068A01C2
:140AAC000C94880D0E947F0DA9015801219769857A856A01C0
:140AC000D694C794D694C794D694C794CC2011F4DD20A9F04C
:140AD40083E090E086010F5F1F4F222733278A930E949A0DCF
:140AE800180129013A01882499242618370848085908610183
:140AFC0005C088E090E06C01C41AD50AC616D70648F0688343
:140B10009A01850161DF20909302222051F129C0C8829A01D9
:140B2400850158DF580120909302222009F01FC06C197D093D
:140B38004C0D5D1D0FC088E088839A01850148DF5801209043
:140B4C009302222009F00FC068507040485F5F4F6830E0E0E1
:140B60007E0768F76030670721F068839A01850133DF2196B9
:140B74000C94880D0E947F0D6901A801688579855601AB2CDE
:140B8800BB24AA0C0E941B0B0A2D00560E94230B0831B1F4C1
:140B9C000C2D0E94230B0E941B0B0A2D0F550E94230B08C041
:140BB0000E94310BFA0100834F5F5F4F61507040603067071A
:140BC400A9F703C081E0809393020E943B0B0C94880D0E94F2
:140BD8007F0D6901A801688579855601AB2CBB24AA0C0E941A
:140BEC001B0B0A2D0E550E94230B0831B1F40C2D0E94230B7E
:140C00000E941B0B0A2D0D550E94230B08C00E94310BFA010E
:140C140000834F5F5F4F6150704060306707A9F703C081E0CA
:140C2800809393020E943B0B0C94880D229780E2898381E06B
:140C3C008883222733278E010F5F1F4F07DF22960895229797
:140C50002224298281E08883222733278E010F5F1F4FFADE4D
:140C6400229608950E94560D690158012197EF80DFDFE88210
:140C780096018501EDDEE7DF850121960C94370D0E94560D94
:140C8C00690158012297E884F984F982E882960185019BDF73
:140CA00022960C94370D809164008061809364008091650061
:140CB4008F7E8093650008950E94580D5901680180916500CA
:140CC80080618093650086010E948E06809165008F7E80936C
:140CDC00650085010E948E060C94320D000008950E945D0D5B
:140CF00058014427552703C0F7DF4F5F5F4F4A155B05D0F339
:140D04000C94620D0027112702C00F5F1F4F0437E4E01E07AB
:140D1800D0F308950E945D0D58014427552703C0EFDF4F5FDC
:140D2C005F4F4A155B05D0F30C94620DA79A85B3807885BBC3
:140D40008FE088BB0E943F0B80E1809394028093950280933A
:140D54009602809397020895AA92A02EC0980A2D0E94450B1F
:140D6800C09AA990089587E292E0E0919402FF27E80FF91F30
:140D7C000081EEDFBC9AC49A0CE310E00E947606BC9AC498B2
:140D900087E292E0E0919502FF27E80FF91F0081DDDF8091E9
:140DA4003802813071F480913902813051F487E292E0E0915D
:140DB8009502FF27E80FF91F00810068CBDFBD9AC59A0CE323
:140DCC0010E00E947606BD9AC59887E292E0E0919602FF2747
:140DE000E80FF91F0081BADF80913802813071F48091390229
:140DF400823051F487E292E0E0919602FF27E80FF91F00815A
:140E08000068A8DFBE9AC69A0CE310E00E947606BE9AC6987C
:140E1C0087E292E0E0919702FF27E80FF91F008197DF8091A0
:140E30003802813071F480913902833051F487E292E0E091CE
:140E44009702FF27E80FF91F0081006885DFBF9AC79A0CE3D6
:140E580010E00E947606BF9AC7980895AA92BA925801AA2078
:140E6C0061F4BB2051F42224209297022092960220929502D9
:140E80002092940274DF8FE097E28A159B0530F40FEF64DF37
:140E940088B3806F88BB7FC087EE93E08A159B0530F528EE3C
:140EA80033E085010E94720C0093970228EE33E085010E9400
:140EBC00700C24E630E00E94720C0093960224E630E08501A1
:140ED0000E94700C2AE030E00E94720C009395022AE030E072
:140EE40085010E94700C009394023FDF54C083E690E08A1583
:140EF8009B0510F522242092970228EE33E085010E94700CE3
:140F0C0024E630E00E94720C0093960224E630E085010E942A
:140F2000700C2AE030E00E94720C009395022AE030E085013D
:140F34000E94700C0093940218DF2DC089E090E08A159B0566
:140F4800C8F42224209297022092960224E630E085010E94BC
:140F5C00700C2AE030E00E94720C009395022AE030E0850101
:140F70000E94700C00939402FADE0FC022242092970220923C
:140F84009602209295022AE030E085010E94700C0093940291
:140F9800EADEB990A99008950E946B0CAA92BA922A803B8058
:140FAC004C805D8004EA10E00E940E0D3A932A931A930A9319
:140FC000810192010E94160E0A831B832C833D8381E0809334
:140FD4003802CE0102961C0100EA10E00E940E0D3A922A922C
:140FE8000E94490F34F40FEFB5DE88B3806F88BBB6C0CE0190
:140FFC0002961C010CE910E00E940E0D3A922A920E94490F08
:14101000ACF508E910E00E940E0DCE0102969A938A930E943A
:14102400320F0E94210E580181E08093390228EE33E00E94D3
:14103800720C0093970228EE33E085010E94700C24E630E013
:14104C000E94720C0093960224E630E085010E94700C2AE07D
:1410600030E00E94720C009395022AE030E085010E94700C64
:14107400009394027ADE75C0CE0102961C0104E910E00E94AF
:141088000E0D3A922A920E94490FACF500E910E00E940E0D80
:14109C00CE0102969A938A930E94320F0E94210E580182E020
:1410B0008093390228EE33E00E94720C0093970228EE33E040
:1410C40085010E94700C24E630E00E94720C0093960224E605
:1410D80030E085010E94700C2AE030E00E94720C00939502EC
:1410EC002AE030E085010E94700C0093940239DE34C00CE80A
:1411000010E00E940E0DCE0102969A938A930E94320F0E94F8
:14111400210E580183E08093390228EE33E00E94720C0093B2
:14112800970228EE33E085010E94700C24E630E00E94720C13
:14113C000093960224E630E085010E94700C2AE030E00E94FA
:14115000720C009395022AE030E085010E94700C00939402FC
:1411640004DE222420923802B990A990249608958C9882B331
:14117800806F82BB08954A934FEF40B3407F403FB1F002E0CB
:14118C0010E00E948E0680B3807F841771F440B3407F80B312
:1411A000807F803FE1F701E010E00E948E0680B3807F803FAD
:1411B400E1F7042F4991089508E912E0E2D008E912E0D8D085
:1411C80022242AB82BB886E0809395008AB188698AB900E8A3
:1411DC0015E200C00E94710D580115014424552440E052E185
:1411F0006AE770E05A924A923A922A928A019B010E94920C93
:1412040040E150E060E070E07A936A935A934A930E94920CE1
:141218001801290141E050E060E070E0241A350A460A570A70
:14122C005101232C332420929000A9B80C94780D0E94580DE7
:141240006901A02E8601C4D0002311F0002704C096010A2D6A
:14125400CED001E00C94320D0E94540D422F5801C884D984B2
:14126800442379F0EE240AC09601EE2DFF27EA0DFB1D00815E
:14127C00DFDF0023B9F3E394E416A0F30BC09601F5010081F4
:14129000D5DF0023D1F3F50181915F018A30A9F70C943E0D02
:1412A4000E946B0C0E945D0D590122974FE352E088E992E0B7
:1412B8009983888324E08A01CDDF850156D00023E1F388E9AC
:1412CC0092E09983888324E08A01C2DF8501C2D022960E94D3
:1412E000620D24960895AA92BA925801850144D0B990A99037
:1412F40008950E94520DE22EA8012297CC84DD84AA246AE30A
:1413080072E080E08E1508F51CC088E992E09983888324E095
:14131C008B019EDF88E992E09983888324E08B0197DF96010D
:1413300001E0B8DFFA010193AF0188E992E09983888324E0E4
:141344008B018ADFA394AE1410F30E2D0DC0960101E0A6DF9F
:14135800FA010193AF01A394FA01319780818A30A1F70A2DBE
:14136C0022960C94470DF801028108952224F8012082218224
:141380002282238208952224F801E859FF4F2082E856F04095
:14139400E759FF4F2082E956F040E659FF4F2082EA56F04007
:1413A80081E0E153FF4F808308954A935A93F8012280222007
:1413BC0019F441E050E002C044275527042F59914991089582
:1413D0004A935A93F801E659FF4F8081843619F441E050E0A0
:1413E40002C044275527042F5991499108950E945D0DA90102
:1413F800A02E8A01E9DF002309F02CC05698FA01E153FF4F4D
:14140C002080EF5CF040222031F0ACB82224E153FF4F208280
:141420001CC0CA0186599F4FFC0180818F5F8083CA018559AC
:141434009F4FFA01E759FF4FE081FF27E80FF91FA0824759D5
:141448005F4F14E6FA0100810F5F0E94F60CFA010083569AEC
:14145C000C94620D0E945D0DA801AA248A01A3DF0023C1F405
:14147000CA010496FA01E081FF27E80FF91FA0805798CA0198
:141484000296FC0180818150808314E6FA0100810F5F0E9464
:14149800F60CFA010083579A0A2D0C94620D2A923A920A9364
:1414AC001A938A939A93EA93FA932FB62A920E94710D48E939
:1414C00052E06BB1ACB0862F887109F022C0FA01828184362D
:1414D40008F01AC0CF010296FC0180818F5F8083CA01049676
:1414E800FA01E181FF27E80FF91FA082CA0101961C0114E6C3
:1414FC00FC0100810F5F0E94F60CF101008303C081E0FA01B8
:1415100083830E94780D29902FBEF991E99199918991199102
:1415240009913990299018950E94710D48E952E06BB1ACB0EF
:14153800862F887109F022C0FA018281843608F01AC0CF01BC
:14154C000296FC0180818F5F8083CA010496FA01E181FF271C
:14156000E80FF91FA082CA0101961C0114E6FC0100810F5FE1
:141574000E94F60CF101008303C081E0FA0183830C94780D00
:141588002A923A920A931A938A939A93EA93FA932FB62A9288
:14159C004A935A9348E952E080E0FA01E659FF4F2080EA5646
:1415B000F040821508F01FC0CF0185599F4FE859FF4FE081FD
:1415C400FF27E80FF91F20802CB8CA0186599F4FFC018081C4
:1415D80081508083CA0188599F4F1C0114E6FC0100810F5F8E
:1415EC000E94F60CF101008305C081E0FA01E153FF4F80832C
:141600005991499129902FBEF991E9919991899119910991E0
:1416140039902990189522242092740084E680937000209288
:1416280071002092720084E080937400089584EA809374009C
:14163C002090740027FEFCCF08950093730084E880937400F0
:141650002090740027FEFCCF000000917100087F089584ECDC
:14166400809374002090740027FEFCCF00917300089584E9C9
:1416780080937400089587B3876087BB83E58DB908950FB9C4
:14168C00779BFECF08954A9380916100846080936100809116
:1416A00062008B7F809362000CE112E00E94760680916100E6
:1416B4008B7F8093610001E410E00E94760640B1447004EF19
:1416C80011E00E94760680916200846080936200042F499126
:1416DC000895AA924A93AA2444271FC08091610084608093C3
:1416F0006100809162008B7F8093620002E010E00E947606A3
:14170400809161008B7F80936100029B05C001E0142F0E94B9
:14171800A60DA02A00E510E00E94760643954830F8F20A2DDC
:14172C004991A9900895AA924A93A02E41E022C0809161009D
:14174000846080936100809162008B7F809362002A2C2422AF
:1417540031F08091620084608093620005C0809162008B7F52
:141768008093620000E510E00E94760680916200846080939B
:14177C006200440F4423E1F64991A9900895AA9282DF0023F6
:1417900021F081E08093640213C00CECCADF04E4C8DF77DF01
:1417A4000CECC5DF0EEBC3DF98DF0093650295DFA02EA09215
:1417B8006602222420926402A09066020A2DA99008954A93D5
:1417CC00442780916602887F883F91F4209066022094209254
:1417E00066028091650280958F5F80936502882321F4822D29
:1417F4008F5F8093660241E084E592E0E0916502FF27EF701F
:14180800F070E80FF91F208020926702809166028F70829513
:14181C009091650292959F70982B9093530214E6092F0E94EB
:14183000F80C00936A0214E6009153020E94F60C1AE00E9481
:14184400F80C009369021AE0009153020E94F60C009368020D
:1418580080916702805D80934F028EE280934E02802F805D62
:14186C0080934D0280916902805D80934C0220906A022220EE
:1418800029F0822D805D80934B0203C080E280934B0220901A
:141894006902222039F420906802222019F480E280934C023A
:1418A800442399F080914C02803221F48DE280934C020BC07B
:1418BC0080914B02803221F48DE280934B0203C08DE28093DF
:1418D0004A02499108953A932A931A930A930895689401C013
:1418E400E894EA92FA928A93EE24FF2480E1000F111FEE1C70
:1418F800FF1CE216F30618F0E21AF30A03958A95A1F716F476
:14190C000E2D1F2D8991F990E9900895E89401C0689430D04E
:14192000CC2409C0E89401C068942AD037FD0E94910DB7FD9F
:1419340052D0772488249924AA24BB2442D0C1F045D0B1F053
:14194800E8E2000F111F221F331F771C881C991CAA1CBB1C66
:14195C0088169906AA06BB0628F0881A990AAA0ABB0A03955B
:14197000EA9559F726F4082D192D2A2D3B2D13C07A928A9245
:141984009A92AA92BA92CA92EA938A939A93AA93BA938B85DE
:141998009C85AD85BE85C32E0EF0CB260895C7FC0E94910D25
:1419AC00B991A99199918991E991C990B990A99099908990C8
:1419C000799024960895E02FE12BE22BE32B0895E82FE92BB5
:1419D400EA2BEB2B089580959095A095B0958F5F9F4FAF4FA9
:1419E800BF4F0895689401C0E8942A93FA92EA92FF24EE240D
:1419FC0020E1000FFF1CEE1CE11610F0E11A03952A95B9F7A9
:141A10000EF40E2DE990F99029910895EA93FA930A92E02F77
:141A2400F12FD895002D3196D895102D3196D895202D31963B
:141A3800D895302D0990F991E99108950A921A928A939A9304
:141A4C00029FC001129F900D039F900D8C019991899119901D
:141A600009900895A990B990C990D9900895A990B990C99080
:141A7400D990E990F9900895A990B990C990D990E990F99010
:141A8800499159910895A990B990C990D990E990F9904991C9
:141A9C0059916991799108957A936A935A934A93FA92EA92CF
:141AB000DA92CA92BA92AA9208955A934A93BA92AA92089546
:141AC400A990B9904991599108957A936A935A934A930895BA
:141AD800499159916991799108957A936A935A934A93BA9275
:141AEC00AA920895A990B990499159916991799108957A9319
:141B00006A935A934A93DA92CA92BA92AA920895A990B9909B
:141B1400C990D99049915991699179910895009510952095A7
:141B280030950F5F1F4F2F4F3F4F08950F920990002031F0E4
:141B3C00000F111F221F331F0A94F8CF0F900895112319F0E5
:141B5000000F1A95FBCF0895689401C0E8940E94C10E0E9410
:141B6400530E09F448C0E62CD52CC42CB32EA22E912E802EE6
:141B780000811181228133810E94530E09F444C0842D952D78
:141B8C008C199D09B9F072F49095809501964C2C5D2C883160
:141BA000B8F535952795179507950197D1F708C0883118F5C8
:141BB400B594A794979487940197D1F766242EF0080D191D00
:141BC8002A1D3B1D09C0801A910AA20AB30A082D192D2A2D31
:141BDC003B2D332322F40E94910D80E8682E0E947C0E02C0F5
:141BF0000E94B10E0E94D00E08950081118122813381C6F73C
:141C04000E945B0EA9F380E83827F2CF082D192D2A2D3B2D63
:141C18004C2C5D2C6E2C33233AF70E94910D80E8682EE2CFA7
:141C2C00FA93EA93EC2FFD2F32960E94AE0DE991F991249670
:141C400008954A925A926A928A930E94630E11F15520E2F0B6
:141C54008FE14816C0F487E14816D1F058F4419489EE481A79
:141C680005C035952795179507954A94D1F70EC087E1481A97
:141C7C00000F111F221F331F4A94D1F705C03FE7232F132F5D
:141C9000032F04C0662011F00E94910D8991699059904990AE
:141CA40008950FD029F0662011F00E94910D989408950023E4
:141CB80029F4112319F4222309F433230895F7DF99F08A9309
:141CCC00632E80E86822220F331F432E8FE7481A552488278D
:141CE000580A269530E8232B3327899198940895442455244F
:141CF40066240895DEDF09F40895AA93BA93D2019A938A93B7
:141D08008EE790E0332349F03695279517950795A817B90705
:141D1C00CCF41196F5CF8095909501962223BAF0000F111F89
:141D3000221FA817B90714F01197F6CF00271127222733276C
:141D4400899199912D01B991A991089533270FEF102F2FE74B
:141D5800322F899199912D0102C0AA93BA93A7DF49F0D201C6
:141D6C00A158BF4F2D01342D220F369527953629B991A99132
:141D800008954A925A926A927A928A929A92AA92BA92CA92B6
:141D9400DA92EA92FA928A939A93089599918991F990E9909A
:141DA800D990C990B990A990999089907990699059904990DD
:141DBC0008950E94C10EAA93BA930E94630EE1F1E62CD52C83
:141DD000C42CB32EA22E912E802E00811181228133810E94E5
:141DE400630E71F16E244C0C5D1C80E84816530664F581E8D4
:141DF80048168FEF58066CF1A29EB12DA02D919E912D802DBB
:141E0C00A09E800D911DA31FB31F829E800D911DA31FB31FC6
:141E2000929E900DA11DB31FA19E900DA11DB31F2B2F1A2F42
:141E3400092F880F001F111F221F331F0E947C0EB991A99139
:141E48000E94D00E08950FEF102F2FE78FE7482EF5CF00273F
:141E5C00102F202F302FF0CFFA93EA93EA81FB810E94DF0E46
:141E7000E991F991229608950E94AC0D33233AF00E945B0E1F
:141E840011F001E00895002708950FEF0895FA93EA93EA81F7
:101E9800FB810E943C0FE991F99122960023089555
:00000001FF
