:040000000C940A0151
:040048000C945E0AAC
:040050000C94CF0A33
:14008C0000007A440000C84200001041000020410000C642DE
:1400A00000C07944ACC52737323031313130313233303030B5
:1400B4000000000000000000323031313130303935303030E5
:1400C800000000000000000000000000000000000000000024
:1400DC000000000000000000000000000000000000000047C9
:1400F00045542054484520535452494E473A0A00474F4F44FE
:140104005F4558500A000054686520737472696E67207772B0
:14011800697474656E20746F2074686520415432344330318C
:14012C002069733A2022474F4F445F455850220A007570645D
:14014000617465207468652070636620646174615F746F209B
:140154006E6F772074696D650A0072656164207468652070DD
:1401680063665F696E69745F646174615F656E640A00726537
:14017C00616420746865207063665F696E69745F64617461E4
:140190000A0042555A5A5F4B45595F746573740A000A5345F3
:1401A40047375F746573740A00445331384232300A006C6521
:1401B800645F746573740A0000007777772E61767276692EBD
:1401CC00636F6D003F065B4F666D7D077F6F777C395E797138
:1401E0000000003F3F3F0A003F3F210A0054656D703A20208B
:1401F4002020202020202000000001010202030404050606F5
:14020800070708090900000000000000CFEFD0E1CDBFDEBF22
:14021C00CE51D0400AEA08830024ECE6F2E013E0E936F1074E
:1402300011F00192FBCF0083E8EAF0E0A0E0B1E012E000E054
:140244000BBFE431F10721F0C89531960D92F9CF0E94D503B9
:14025800FFCF0E947A0D44272224209246012EC0209046010C
:14026C00E22DFF27EE0FFF1FE00FF11F808180538F70829545
:14028000807FE0E8F2E0A22DBB27AE0FBF1F8C93209046016F
:1402940080E892E0A22CBB24A80EB91EE22DFF27EE0FFF1FF2
:1402A800E00FF11F818180538F70F5012080282A20828091D4
:1402BC0046018F5F8093460180914601863008F4CDCF44278E
:1402D00011C0242E3324E5E0F0E0E219F30980E892E0E80F43
:1402E400F91F2080E42FFF27E00FF11F20824395463068F3CB
:1402F8000C947F0D4A935A93A8018A01AADFFA012081332749
:14030C0002E00E942B05FA012181332703E00E942B05FA0182
:140320002281332704E00E942B05FA012381332705E00E9496
:140334002B052227332706E00E942B05FA012481332707E049
:140348000E942B05FA012581332708E00E942B050E943A0638
:14035C005991499108954A935A93F80180818F778083CF018F
:140370000196FC0180818F778083C8010296FC0180818F737A
:140384008083A8014D5F5F4FFA0180818F738083A8014C5F0A
:140398005F4FFA01808187708083A8014B5F5F4FFA018081B0
:1403AC008F7180835991499108950E947A0D5801222420925F
:1403C000460144272FC0209046013324822D8F5F8093460143
:1403D400E42FFF27EA0DFB1D808182958F70805DE0E8F2E03F
:1403E800A22DBB27AE0FBF1F8C93209046013324822D8F5FAB
:1403FC0080934601E42FFF27EA0DFB1D008110E10E94130D17
:14041000802F805DE0E8F2E0A22DBB27AE0FBF1F8C9343956F
:14042400473008F4CECF80E892E0E0914601FF27E80FF91FED
:140438002224208244270DC080E892E0E42FFF27E80FF91F6E
:14044C002080E42FFF27EA0DFB1D2082439580E892E0E42F4D
:14046000FF27E80FF91F2080222051F7E42FFF27EA0DFB1DE1
:14047400222420820C947F0DAA92CA92CC24AA2402C0A39411
:14048800C394EC2DFF27E00FF11F20802220B9F70A2DC990A9
:14049C00A9900895AA92BA92580122978501E8DF89E992E0AB
:1404B00099838883202F85010E9439092296B990A990089581
:1404C4000E94750DC22E5801229789E992E0998388832C2D9A
:1404D80085010E94860922960C944F0D0E94840DA801222483
:1404EC00209246013324822D8F5F8093460184E191E0E22DD0
:14050000FF27E80FF91F82E38083209046013324822D8F5F5F
:140514008093460184E191E0E22DFF27E80FF91F80E38083F9
:14052800609146017727862F8F5F8093460184E191E0E62F01
:14053C00FF27E80FF91FDA011C962C902082609146017727B5
:14055000862F8F5F8093460184E191E0E62FFF27E80FF91F7A
:14056400DA011D962C902082609146017727862F8F5F80930B
:14057800460184E191E0E62FFF27E80FF91F8DE280836091A5
:14058C0046017727862F8F5F8093460184E191E0E62FFF2768
:1405A000E80FF91FDA011A962C902082609146017727862FC4
:1405B4008F5F8093460184E191E0E62FFF27E80FF91FDA01F0
:1405C8001B962C902082609146017727862F8F5F809346013D
:1405DC0084E191E0E62FFF27E80FF91F8DE280836091460141
:1405F0007727862F8F5F8093460184E191E0E62FFF27E80F54
:14060400F91FDA0116962C902082609146017727862F8F5F6C
:140618008093460184E191E0E62FFF27E80FF91FDA011796CC
:14062C002C902082609146017727862F8F5F8093460184E124
:1406400091E0E62FFF27E80FF91F80E28083609146017727B0
:14065400862F8F5F8093460184E191E0E62FFF27E80FF91F75
:1406680080E28083609146017727862F8F5F8093460184E1E1
:14067C0091E0E62FFF27E80FF91FDA0114962C9020826091DB
:1406900046017727862F8F5F8093460184E191E0E62FFF2763
:1406A400E80FF91FDA0115962C902082609146017727862FC4
:1406B8008F5F8093460184E191E0E62FFF27E80FF91F8AE359
:1406CC008083609146017727862F8F5F8093460184E191E06E
:1406E000E62FFF27E80FF91FDA0112962C90208260914601A3
:1406F4007727862F8F5F8093460184E191E0E62FFF27E80F4F
:14070800F91FDA0113962C902082609146017727862F8F5F6A
:14071C008093460184E191E0E62FFF27E80FF91F8AE38083DF
:14073000609146017727862F8F5F8093460184E191E0E62FF7
:14074400FF27E80FF91FDA012C902082609146017727862FA8
:140758008F5F8093460184E191E0E62FFF27E80FF91F11967E
:14076C002C902082409146015527842F8F5F8093460184E127
:1407800091E0E42FFF27E80FF91F8AE0808384E191E0E091F8
:140794004601FF27E80FF91F2224208204E111E07DDE0C941C
:1407A800890D229748E152E0AA24F8940E94E3080E94180BE7
:1407BC00F8940E94E20B04EF11E00E94910608EE13E00E9466
:1407D00091060E94E20BC02E78940EE012E060DE04EF11E0F3
:1407E4000E9491060E94F5088FEF83B982B966270DC0222494
:1407F80023B80CE211E00E9491068FEF83B90CE211E00E94BF
:14080C0091066395633088F30E94E30805E012E041DE0E9416
:14082000020C05E412E03CDE09EF11E039DE0E94A1066627EB
:1408340013C0AA240DC0262F332707E514E00E943F0D0E9423
:14084800370701E010E00E949106A3948A2D883C80F3639537
:14085C006A3058F30AEE11E01DDE8FEF82B983B90E94BF0861
:140870000E946606662771C0662309F06FC00E94C408A02EBB
:14088400BB24C501803BE0E09E0709F437C080EB8A159B05FD
:1408980034F0C5018037E0E09E0799F05AC0C501803DE0E060
:1408AC009E0709F43CC0803DE0E09E070CF44FC0C501803EE5
:1408C000E0E09E0709F440C048C087EF83B922E330E004E609
:1408D40010E00E94710622E330E004E610E00E94710622E3FA
:1408E80030E004E610E00E94710622E330E004E610E00E9468
:1408FC0071062DC08BEF83B922E330E004E610E00E947106C6
:1409100022E330E004E610E00E94710622E330E004E610E0DC
:140924000E94710618C08DEF83B922E330E004E610E00E9485
:14093800710622E330E004E610E00E94710609C08EEF83B9AA
:14094C0022E330E004E610E00E94710661E08ECF02ED11E011
:140960009FDD87E090E09983888322E030E00CE612E00E9471
:1409740057060CE612E0F3DC0CE612E01ADD06EB11E08CDD39
:140988000CE612E0ABDD05E911E086DD00E011E0B1DC87E0E8
:14099C0090E09983888322E030E00CE612E00E9457060CE6C9
:1409B00012E0D7DC0CE612E0FEDC0CE612E092DD03E611E0A3
:1409C4006DDD8AE090E0998388832227332708E511E00E94B1
:1409D8006B0507E411E060DD8AE090E09983888322273327DE
:1409EC008A010E94CF058A0155DDFFCFFFCF229608950E94A6
:140A00009C0D6901A801A884B601672F7727660F0E94260BC7
:140A1400062F00560E942E0B083179F40C2D0E942E0B07C0E7
:140A2800FA0100810E942E0B4F5F5F4FAA9480E08A15B0F327
:140A3C0003C081E0809394020E94460B06E010E00E949106D7
:140A50008A010C94A50DAA92CA926901A02E2397CA8281E07E
:140A640090E0998388832A2D33278E010E5F1F4F04D023963F
:140A7800C990A99008950E949C0D6901A801A884B601672F64
:140A8C007727660F0E94260B062F0E550E942E0B083179F457
:140AA0000C2D0E942E0B07C0FA0100810E942E0B4F5F5F4FB4
:140AB400AA9480E08A15B0F303C081E0809394020E94460B8E
:140AC80006E010E00E9491068A010C94A50D0E949C0DA90139
:140ADC005801219769857A856A01D694C794D694C794D694A9
:140AF000C794CC2011F4DD20A9F083E090E086010F5F1F4FDA
:140B0400222733278A930E94B70D180129013A0188249924D0
:140B18002618370848085908610105C088E090E06C01C41A51
:140B2C00D50AC616D70648F068839A01850161DF2090940253
:140B4000222051F129C0C8829A01850158DF580120909402F3
:140B5400222009F01FC06C197D094C0D5D1D0FC088E0888353
:140B68009A01850148DF580120909402222009F00FC06850D0
:140B7C007040485F5F4F6830E0E07E0768F76030670721F015
:140B900068839A01850133DF21960C94A50D0E949C0D690175
:140BA400A801688579855601AB2CBB24AA0C0E94260B0A2DDC
:140BB80000560E942E0B0831B1F40C2D0E942E0B0E94260B33
:140BCC000A2D0F550E942E0B08C00E943C0BFA0100834F5FC2
:140BE0005F4F6150704060306707A9F703C081E08093940287
:140BF4000E94460B0C94A50D0E949C0D6901A801688579855F
:140C08005601AB2CBB24AA0C0E94260B0A2D0E550E942E0BCD
:140C1C000831B1F40C2D0E942E0B0E94260B0A2D0D550E94C4
:140C30002E0B08C00E943C0BFA0100834F5F5F4F615070408B
:140C440060306707A9F703C081E0809394020E94460B0C949E
:140C5800A50D229780E2898381E08883222733278E010F5FA3
:140C6C001F4F07DF2296089522972224298281E0888322276C
:140C800033278E010F5F1F4FFADE229608950E94730D6901E2
:140C940058012197EF80DFDFE88296018501EDDEE7DF850170
:140CA80021960C94540D0E94730D690158012297E884F984F9
:140CBC00F982E882960185019BDF22960C94540D809164007A
:140CD000806180936400809165008F7E8093650008950E947E
:140CE400750D590168018091650080618093650086010E94BF
:140CF8009106809165008F7E8093650085010E9491060C94F7
:140D0C004F0DC80101978C0100300107D1F7089507EE13E004
:140D2000F6CF4A935A93A80106C0000007EE13E0EEDF41507B
:140D3400504040304507B9F7599149910895A79A85B38078DD
:140D480085BB8FE088BB0E944A0B80E18093950280939602F8
:140D5C0080939702809398020895AA92A02EC0980A2D0E9452
:140D7000500BC09AA990089588E292E0E0919502FF27E80FE3
:140D8400F91F0081EEDFBC9AC49A0CE310E00E948706BC9ADD
:140D9800C49888E292E0E0919602FF27E80FF91F0081DDDF94
:140DAC0080913902813071F480913A02813051F488E292E0B2
:140DC000E0919602FF27E80FF91F00810068CBDFBD9AC59A98
:140DD4000CE310E00E948706BD9AC59888E292E0E091970263
:140DE800FF27E80FF91F0081BADF80913902813071F4809135
:140DFC003A02823051F488E292E0E0919702FF27E80FF91F95
:140E100000810068A8DFBE9AC69A0CE310E00E948706BE9A40
:140E2400C69888E292E0E0919802FF27E80FF91F008197DF49
:140E380080913902813071F480913A02833051F488E292E023
:140E4C00E0919802FF27E80FF91F0081006885DFBF9AC79A4B
:140E60000CE310E00E948706BF9AC7980895AA92BA9258013A
:140E7400AA2061F4BB2051F42224209298022092970220929C
:140E880096022092950274DF8FE097E28A159B0530F40FEFD9
:140E9C0064DF88B3806F88BB7FC087EE93E08A159B0530F507
:140EB00028EE33E085010E948F0C0093980228EE33E0850166
:140EC4000E948D0C24E630E00E948F0C0093970224E630E042
:140ED80085010E948D0C2AE030E00E948F0C009396022AE0B9
:140EEC0030E085010E948D0C009395023FDF54C083E690E0EC
:140F00008A159B0510F522242092980228EE33E085010E94B6
:140F14008D0C24E630E00E948F0C0093970224E630E085010D
:140F28000E948D0C2AE030E00E948F0C009396022AE030E0DE
:140F3C0085010E948D0C0093950218DF2DC089E090E08A155A
:140F50009B05C8F42224209298022092970224E630E08501B4
:140F64000E948D0C2AE030E00E948F0C009396022AE030E0A2
:140F780085010E948D0C00939502FADE0FC022242092980241
:140F8C0020929702209296022AE030E085010E948D0C00934E
:140FA0009502EADEB990A99008950E94880CAA92BA922A8057
:140FB4003B804C805D8004EA10E00E942B0D3A932A931A93D6
:140FC8000A93810192010E94330E0A831B832C833D8381E085
:140FDC0080933902CE0102961C0100EA10E00E942B0D3A92AF
:140FF0002A920E94660F34F40FEFB5DE88B3806F88BBB6C07E
:14100400CE0102961C010CE910E00E942B0D3A922A920E946B
:14101800660FACF508E910E00E942B0DCE0102969A938A9342
:14102C000E944F0F0E943E0E580181E080933A0228EE33E090
:141040000E948F0C0093980228EE33E085010E948D0C24E63E
:1410540030E00E948F0C0093970224E630E085010E948D0C34
:141068002AE030E00E948F0C009396022AE030E085010E94B0
:14107C008D0C009395027ADE75C0CE0102961C0104E910E0AF
:141090000E942B0D3A922A920E94660FACF500E910E00E94B7
:1410A4002B0DCE0102969A938A930E944F0F0E943E0E580108
:1410B80082E080933A0228EE33E00E948F0C0093980228EECA
:1410CC0033E085010E948D0C24E630E00E948F0C00939702B9
:1410E00024E630E085010E948D0C2AE030E00E948F0C009337
:1410F40096022AE030E085010E948D0C0093950239DE34C040
:141108000CE810E00E942B0DCE0102969A938A930E944F0F64
:14111C000E943E0E580183E080933A0228EE33E00E948F0C60
:141130000093980228EE33E085010E948D0C24E630E00E94D8
:141144008F0C0093970224E630E085010E948D0C2AE030E0DB
:141158000E948F0C009396022AE030E085010E948D0C0093AD
:14116C00950204DE222420923902B990A990249608958C98C6
:1411800082B3806F82BB08954A934FEF40B3407F403FB1F070
:1411940002E010E00E94910680B3807F841771F440B3407F58
:1411A80080B3807F803FE1F701E010E00E94910680B3807F2E
:1411BC00803FE1F7042F4991089509E912E0E8D009E912E05E
:1411D000DED022242AB82BB886E0809395008AB188698AB9D5
:1411E40000E815E206C022242BB82AB82092950008950E94C1
:1411F8008E0D580115014424552440E052E16AE770E05A9218
:14120C004A923A922A928A019B010E94AF0C40E150E060E055
:1412200070E07A936A935A934A930E94AF0C1801290141E0D5
:1412340050E060E070E0241A350A460A570A5101232C3324C0
:1412480020929000A9B80C94950D0E94750D6901A02E8601CA
:14125C00C4D0002311F0002704C096010A2DCED001E00C94EE
:141270004F0D0E94710D422F5801C884D984442379F0EE2499
:141284000AC09601EE2DFF27EA0DFB1D0081DFDF0023B9F397
:14129800E394E416A0F30BC09601F5010081D5DF0023D1F3CA
:1412AC00F50181915F018A30A9F70C945B0D0E94880C0E948C
:1412C0007A0D5901229740E452E089E992E09983888324E01B
:1412D4008A01CDDF850156D00023E1F389E992E09983888321
:1412E80024E08A01C2DF8501C2D022960E947F0D249608956D
:1412FC00AA92BA925801850144D0B990A99008950E946F0D26
:14131000E22EA8012297CC84DD84AA246BE372E080E08E1535
:1413240008F51CC089E992E09983888324E08B019EDF89E952
:1413380092E09983888324E08B0197DF960101E0B8DFFA01F8
:14134C000193AF0189E992E09983888324E08B018ADFA3940E
:14136000AE1410F30E2D0DC0960101E0A6DFFA010193AF0170
:14137400A394FA01319780818A30A1F70A2D22960C94640D18
:14138800F801028108952224F80120822182228223820895CE
:14139C002224F801E859FF4F2082E856F040E759FF4F20822F
:1413B000E956F040E659FF4F2082EA56F04081E0E153FF4F38
:1413C400808308954A935A93F8012280222019F441E050E070
:1413D80002C044275527042F5991499108954A935A93F80101
:1413EC00E659FF4F8081843619F441E050E002C0442755279E
:14140000042F5991499108950E947A0DA901A02E8A01E9DF50
:14141400002309F02CC05698FA01E153FF4F2080EF5CF04036
:14142800222031F0ACB82224E153FF4F20821CC0CA018659F9
:14143C009F4FFC0180818F5F8083CA0185599F4FFA01E759ED
:14145000FF4FE081FF27E80FF91FA08247595F4F14E6FA013F
:1414640000810F5F0E94130DFA010083569A0C947F0D0E9487
:141478007A0DA801AA248A01A3DF0023C1F4CA010496FA011D
:14148C00E081FF27E80FF91FA0805798CA010296FC01808146
:1414A0008150808314E6FA0100810F5F0E94130DFA01008340
:1414B400579A0A2D0C947F0D2A923A920A931A938A939A93B4
:1414C800EA93FA932FB62A920E948E0D49E952E06BB1ACB04C
:1414DC00862F887109F022C0FA018281843608F01AC0CF0119
:1414F0000296FC0180818F5F8083CA010496FA01E181FF2779
:14150400E80FF91FA082CA0101961C0114E6FC0100810F5F3D
:141518000E94130DF101008303C081E0FA0183830E94950D1F
:14152C0029902FBEF991E991999189911991099139902990F7
:1415400018950E948E0D49E952E06BB1ACB0862F887109F02A
:1415540022C0FA018281843608F01AC0CF010296FC018081B1
:141568008F5F8083CA010496FA01E181FF27E80FF91FA08265
:14157C00CA0101961C0114E6FC0100810F5F0E94130DF10142
:14159000008303C081E0FA0183830C94950D2A923A920A9338
:1415A4001A938A939A93EA93FA932FB62A924A935A9349E995
:1415B80052E080E0FA01E659FF4F2080EA56F040821508F066
:1415CC001FC0CF0185599F4FE859FF4FE081FF27E80FF91F6B
:1415E00020802CB8CA0186599F4FFC01808181508083CA013E
:1415F40088599F4F1C0114E6FC0100810F5F0E94130DF1015D
:14160800008305C081E0FA01E153FF4F808359914991299028
:14161C002FBEF991E991999189911991099139902990189512
:1416300022242092740084E680937000209271002092720006
:1416440084E080937400089584EA809374002090740027FECC
:14165800FCCF08950093730084E8809374002090740027FED4
:14166C00FCCF000000917100087F089584EC809374002090D2
:14168000740027FEFCCF00917300089584E9809374000895C0
:1416940087B3876087BB83E58DB908950FB9779BFECF089550
:1416A8004A938091610084608093610080916200846080931D
:1416BC006200809162008B7F809362000CE112E00E948706B8
:1416D000809161008B7F80936100809162008460809362004A
:1416E40008E210E00E94870640B1447004EF11E00E94870631
:1416F80080916200846080936200042F49910895AA924A934F
:14170C00AA24442723C0809161008460809361008091620070
:141720008B7F8093620002E010E00E948706809161008B7FB9
:14173400809361000AE010E00E948706029B05C001E0142F9E
:141748000E94C30DA02A00E510E00E94870643954830D8F233
:14175C000A2D4991A9900895AA924A93A02E41E026C0809193
:141770006100846080936100809162008B7F809362000AE0D0
:1417840010E00E9487062A2C242231F080916200846080930B
:14179800620005C0809162008B7F8093620000E510E00E94AD
:1417AC00870680916200846080936200440F4423C1F6499185
:1417C000A9900895AA9270DF002321F081E08093650213C0D2
:1417D4000CECC6DF04E4C4DF65DF0CECC1DF0EEBBFDF90DFF7
:1417E800009366028DDFA02EA0926702222420926502A0908E
:1417FC0067020A2DA99008954A93442780916702887F883FD3
:1418100091F4209067022094209267028091660280958F5FDB
:1418240080936602882321F4822D8F5F8093670241E085E5D1
:1418380092E0E0916602FF27EF70F070E80FF91F208020920B
:14184C006802809167028F7082959091660292959F70982B0C
:141860009093540214E6092F0E94150D00936B0214E600917A
:1418740054020E94130D1AE00E94150D00936A021AE0009100
:1418880054020E94130D0093690280916802805D8093500279
:14189C008EE280934F02802F805D80934E0280916A02805D1B
:1418B00080934D0220906B02222029F0822D805D80934C025D
:1418C40003C080E280934C0220906A02222039F420906902E4
:1418D800222019F480E280934D02442399F080914D028032E7
:1418EC0021F48DE280934D020BC080914C02803221F48DE2A2
:1419000080934C0203C08DE280934B02499108953A932A93DF
:141914001A930A930895689401C0E894EA92FA928A93EE2468
:14192800FF2480E1000F111FEE1CFF1CE216F30618F0E21ACE
:14193C00F30A03958A95A1F716F40E2D1F2D8991F990E9909E
:141950000895E89401C0689430D0CC2409C0E89401C06894BB
:141964002AD037FD0E94AE0DB7FD52D0772488249924AA243C
:14197800BB2442D0C1F045D0B1F0E8E2000F111F221F331F67
:14198C00771C881C991CAA1CBB1C88169906AA06BB0628F0F8
:1419A000881A990AAA0ABB0A0395EA9559F726F4082D192D79
:1419B4002A2D3B2D13C07A928A929A92AA92BA92CA92EA93D8
:1419C8008A939A93AA93BA938B859C85AD85BE85C32E0EF0A2
:1419DC00CB260895C7FC0E94AE0DB991A99199918991E99107
:1419F000C990B990A99099908990799024960895E02FE12B4B
:141A0400E22BE32B0895E82FE92BEA2BEB2B089580959095E9
:141A1800A095B0958F5F9F4FAF4FBF4F0895689401C0E89482
:141A2C002A93FA92EA92FF24EE2420E1000FFF1CEE1CE11680
:141A400010F0E11A03952A95B9F70EF40E2DE990F990299197
:141A54000895EA93FA930A92E02FF12FD895002D3196D8953E
:141A6800102D3196D895202D3196D895302D0990F991E9917E
:141A7C0008950A921A928A939A93029FC001129F900D039FD5
:141A9000900D8C0199918991199009900895A990B990C9901A
:141AA400D9900895A990B990C990D990E990F9900895A9900C
:141AB800B990C990D990E990F990499159910895A990B9902A
:141ACC00C990D990E990F990499159916991799108957A93D0
:141AE0006A935A934A93FA92EA92DA92CA92BA92AA92089536
:141AF4005A934A93BA92AA920895A990B9904991599108950C
:141B08007A936A935A934A93089549915991699179910895F3
:141B1C007A936A935A934A93BA92AA920895A990B990499160
:141B300059916991799108957A936A935A934A93DA92CA927A
:141B4400BA92AA920895A990B990C990D99049915991699166
:141B58007991089500951095209530950F5F1F4F2F4F3F4F36
:141B6C0008950F920990002031F0000F111F221F331F0A94DD
:141B8000F8CF0F900895112319F0000F1A95FBCF08956894F0
:141B940001C0E8940E94DE0E0E94700E09F448C0E62CD52C3A
:141BA800C42CB32EA22E912E802E00811181228133810E940F
:141BBC00700E09F444C0842D952D8C199D09B9F072F49095A4
:141BD000809501964C2C5D2C8831B8F5359527951795079520
:141BE4000197D1F708C0883118F5B594A7949794879401979D
:141BF800D1F766242EF0080D191D2A1D3B1D09C0801A910A81
:141C0C00A20AB30A082D192D2A2D3B2D332322F40E94AE0D58
:141C200080E8682E0E94990E02C00E94CE0E0E94ED0E0895EF
:141C34000081118122813381C6F70E94780EA9F380E83827EA
:141C4800F2CF082D192D2A2D3B2D4C2C5D2C6E2C33233AF76B
:141C5C000E94AE0D80E8682EE2CFFA93EA93EC2FFD2F32964F
:141C70000E94CB0DE991F991249608954A925A926A928A93AA
:141C84000E94800E11F15520E2F08FE14816C0F487E148168B
:141C9800D1F058F4419489EE481A05C03595279517950795EA
:141CAC004A94D1F70EC087E1481A000F111F221F331F4A9436
:141CC000D1F705C03FE7232F132F032F04C0662011F00E94AA
:141CD400AE0D899169905990499008950FD029F0662011F050
:141CE8000E94AE0D98940895002329F4112319F4222309F4FF
:141CFC0033230895F7DF99F08A93632E80E86822220F331F5F
:141D1000432E8FE7481A55248827580A269530E8232B332771
:141D24008991989408954424552466240895DEDF09F4089569
:141D3800AA93BA93D2019A938A938EE790E0332349F03695B1
:141D4C00279517950795A817B907CCF41196F5CF809590959B
:141D600001962223BAF0000F111F221FA817B90714F011973E
:141D7400F6CF0027112722273327899199912D01B991A9919E
:141D8800089533270FEF102F2FE7322F899199912D0102C068
:141D9C00AA93BA93A7DF49F0D201A158BF4F2D01342D220F50
:141DB000369527953629B991A99108954A925A926A927A9248
:141DC4008A929A92AA92BA92CA92DA92EA92FA928A939A9321
:141DD800089599918991F990E990D990C990B990A9909990A7
:141DEC008990799069905990499008950E94DE0EAA93BA9351
:141E00000E94800EE1F1E62CD52CC42CB32EA22E912E802EAB
:141E140000811181228133810E94800E71F16E244C0C5D1C5B
:141E280080E84816530664F581E848168FEF58066CF1A29EEE
:141E3C00B12DA02D919E912D802DA09E800D911DA31FB31F40
:141E5000829E800D911DA31FB31F929E900DA11DB31FA19EF3
:141E6400900DA11DB31F2B2F1A2F092F880F001F111F221F3B
:141E7800331F0E94990EB991A9910E94ED0E08950FEF102FC0
:141E8C002FE78FE7482EF5CF0027102F202F302FF0CFFA931C
:141EA000EA93EA81FB810E94FC0EE991F991229608950E9423
:141EB400C90D33233AF00E94780E11F001E008950027089559
:141EC8000FEF0895FA93EA93EA81FB810E94590FE991F9916C
:061EDC0022960023089588
:00000001FF
