:040000000C94EB0071
:040048000C942609E5
:040050000C9497096C
:1400E40000007A440000C84200001041000020410000C64286
:1400F80000C07944ACC527373230313131303132333030305D
:14010C0000000000000000003230313131303039353030308C
:140120000000000000000000000000000000000000000000CB
:14013400000000000000000000000000000000000000007443
:140148006F5F70630A00776F63616F007772697465615F7480
:14015C006F5F617432346330315F22776F63616F220A007587
:140170007064617465207468652070636620646174615F7426
:140184006F206E6F772074696D650A007265616420746865AE
:14019800207063665F696E69745F646174610A0000007777F6
:1401AC00772E61767276692E636F6D003F065B4F666D7D07BF
:1401C0007F6F777C395E79710000003F3F3F0A003F3F210A59
:0101D400002A
:1401D600CFEFD1E2CDBFDEBFCE51D0400AEA08830024E5EDD7
:1401EA00F2E013E0E23DF10711F00192FBCF0083E0E0F1E0B3
:1401FE00A0E0B2E011E000E00BBFE53DF10721F0C8953196F1
:140212000D92F9CF0E94CE02FFCF0E940E0B44272224209213
:1402260046022EC020904602E22DFF27EE0FFF1FE00FF11F47
:14023A00808180538F708295807FE9EEF2E0A22DBB27AE0FB0
:14024E00BF1F8C932090460289EE92E0A22CBB24A80EB91E84
:14026200E22DFF27EE0FFF1FE00FF11F818180538F70F5016F
:140276002080282A2082809146028F5F8093460280914602E5
:14028A00863008F4CDCF442711C0242E3324E5E0F0E0E2199D
:14029E00F30989EE92E0E80FF91F2080E42FFF27E00FF11F80
:1402B20020824395463068F30C94130B4A935A93A8018A0131
:1402C600AADFFA012081332702E00E94F903FA01218133272E
:1402DA0003E00E94F903FA012281332704E00E94F903FA011A
:1402EE002381332705E00E94F9032227332706E00E94F90354
:14030200FA012481332707E00E94F903FA012581332708E085
:140316000E94F9030E9408055991499108954A935A93F80162
:14032A0080818F778083CF010196FC0180818F778083C8017E
:14033E000296FC0180818F738083A8014D5F5F4FFA01808111
:140352008F738083A8014C5F5F4FFA01808187708083A801F1
:140366004B5F5F4FFA0180818F7180835991499108950E9429
:14037A000E0B580122242092460244272FC020904602332414
:14038E00822D8F5F80934602E42FFF27EA0DFB1D8081829503
:1403A2008F70805DE9EEF2E0A22DBB27AE0FBF1F8C932090A7
:1403B60046023324822D8F5F80934602E42FFF27EA0DFB1D54
:1403CA00008110E10E94A70A802F805DE9EEF2E0A22DBB2774
:1403DE00AE0FBF1F8C934395473008F4CECF89EE92E0E0910F
:1403F2004602FF27E80FF91F2224208244270DC089EE92E071
:14040600E42FFF27E80FF91F2080E42FFF27EA0DFB1D208210
:14041A00439589EE92E0E42FFF27E80FF91F2080222051F79B
:14042E00E42FFF27EA0DFB1D222420820C94130BAA92CA9234
:14044200CC24AA2402C0A394C394EC2DFF27E00FF11F2080BA
:140456002220B9F70A2DC990A9900895AA92BA9258012297A0
:14046A008501E8DF82E093E099838883202F85010E940108B5
:14047E002296B990A99008950E94090BC22E5801229782E079
:1404920093E0998388832C2D85010E944E0822960C94E30AA0
:1404A6000E94180B4CE02224209246023324822D8F5F80930A
:1404BA00460284E192E0E22DFF27E80FF91F82E380832090B3
:1404CE0046023324822D8F5F8093460284E192E0E22DFF2777
:1404E200E80FF91F80E380833AC0609146027727862F8F5F1D
:1404F60080934602E42FFF27EE0FFF1FE00FF11F208084E13F
:14050A0092E0E62FFF27E80FF91F2082609146027727862FF3
:14051E008F5F80934602E42FFF27EE0FFF1FE00FF11F21808C
:1405320084E192E0E62FFF27E80FF91F20826091460277271B
:14054600862F8F5F8093460284E192E0E62FFF27E80FF91F82
:14055A008DE280834A95403008F0C3CF83E192E0E0914602B3
:14056E00FF27E80FF91F8AE08083409146025527842F8F5FA1
:140582008093460284E192E0E42FFF27E80FF91F2224208203
:1405960000C00C941D0B229748EA52E0AA24F8940E94B107F8
:1405AA000E94E00978948FEF83B982B966270DC0222423B836
:1405BE000CE211E00E946F058FEF83B90CE211E00E946F0585
:1405D2006395633088F30E947D05662713C0AA240DC0262F9B
:1405E600332707E514E00E94D30A0E94130601E010E00E941A
:1405FA006F05A3948A2D883C80F363956A3058F38FEF82B9BE
:14060E0083B90E948D070E94340566276BC0662309F069C028
:140622000E949207A02EBB24C501803BE0E09E0709F437C002
:1406360080EB8A159B0534F0C5018037E0E09E0799F054C063
:14064A00C501803DE0E09E0709F43CC0803DE0E09E070CF499
:14065E0049C0C501803EE0E09E0709F440C042C087EF83B9E5
:1406720022E330E004E610E00E943F0522E330E004E610E0B0
:140686000E943F0522E330E004E610E00E943F0522E330E090
:14069A0004E610E00E943F0527C08BEF83B922E330E004E6F0
:1406AE0010E00E943F0522E330E004E610E00E943F0522E388
:1406C20030E004E610E00E943F0512C08DEF83B922E330E0B5
:1406D60004E610E00E943F0522E330E004E610E00E943F057B
:1406EA0003C08EEF83B961E094CF00E912E0B4DE87E090E098
:1406FE009983888322E030E005ED12E00E94250505ED12E01B
:1407120008DE05ED12E02FDE05ED12E0C3DE0FE612E09EDE14
:1407260000E012E0C9DD87E090E09983888322E030E005ED45
:14073A0012E00E94250505ED12E0EFDD05ED12E016DE05ED73
:14074E0012E0AADE04E512E085DE85E090E09983888322279A
:1407620033270EE412E00E94390407E412E078DE85E090E05E
:1407760099838883222733278A010E949D048AE0FA0185836A
:14078A00222426828F0168DEFFCFFFCF229608950E94300BC9
:14079E006901A801A884B601672F7727660F0E94EE09062FDA
:1407B20000560E94F609083179F40C2D0E94F60907C0FA01FA
:1407C60000810E94F6094F5F5F4FAA9480E08A15B0F303C0FE
:1407DA0081E08093FD020E940E0A06E010E00E946F058A0167
:1407EE000C94390BAA92CA926901A02E2397CA8281E090E06C
:14080200998388832A2D33278E010E5F1F4F04D02396C990BA
:14081600A99008950E94300B6901A801A884B601672F7727F1
:14082A00660F0E94EE09062F0E550E94F609083179F40C2D94
:14083E000E94F60907C0FA0100810E94F6094F5F5F4FAA9487
:1408520080E08A15B0F303C081E08093FD020E940E0A06E01A
:1408660010E00E946F058A010C94390B0E94300BA901580129
:14087A00219769857A856A01D694C794D694C794D694C7940B
:14088E00CC2011F4DD20A9F083E090E086010F5F1F4F222750
:1408A20033278A930E944B0B180129013A01882499242618AE
:1408B600370848085908610105C088E090E06C01C41AD50A15
:1408CA00C616D70648F068839A01850161DF2090FD022220EC
:1408DE0051F129C0C8829A01850158DF58012090FD022220EF
:1408F20009F01FC06C197D094C0D5D1D0FC088E088839A015F
:14090600850148DF58012090FD02222009F00FC068507040B6
:14091A00485F5F4F6830E0E07E0768F76030670721F068833E
:14092E009A01850133DF21960C94390B0E94300B6901A801F7
:14094200688579855601AB2CBB24AA0C0E94EE090A2D0056CD
:140956000E94F6090831B1F40C2D0E94F6090E94EE090A2D64
:14096A000F550E94F60908C00E94040AFA0100834F5F5F4F22
:14097E006150704060306707A9F703C081E08093FD020E948E
:140992000E0A0C94390B0E94300B6901A80168857985560123
:1409A600AB2CBB24AA0C0E94EE090A2D0E550E94F6090831C4
:1409BA00B1F40C2D0E94F6090E94EE090A2D0D550E94F609D7
:1409CE0008C00E94040AFA0100834F5F5F4F615070406030D2
:1409E2006707A9F703C081E08093FD020E940E0A0C94390B1F
:1409F600229780E2898381E08883222733278E010F5F1F4F4C
:140A0A0007DF2296089522972224298281E0888322273327E4
:140A1E008E010F5F1F4FFADE229608950E94070B69015801B5
:140A32002197EF80DFDFE88296018501EDDEE7DF8501219676
:140A46000C94E80A0E94070B690158012297E884F984F98276
:140A5A00E882960185019BDF22960C94E80A809164008061E7
:140A6E0080936400809165008F7E8093650008950E94090BAF
:140A8200590168018091650080618093650086010E946F0531
:140A9600809165008F7E8093650085010E946F050C94E30A28
:140AAA00000008950E940E0B58014427552703C0F7DF4F5F59
:140ABE005F4F4A155B05D0F30C94130B0027112702C00F5FA7
:140AD2001F4F0437E4E01E07D0F308950E940E0B580144279F
:140AE600552703C0EFDF4F5F5F4F4A155B05D0F30C94130B53
:140AFA00A79A85B3807885BB8FE088BB0E94120A80E1809353
:140B0E00FE028093FF0280930003809301030895AA92A02EEB
:140B2200C0980A2D0E94180AC09AA990089588EB92E0E091E6
:140B3600FE02FF27E80FF91F0081EEDFBC9AC49A0CE310E095
:140B4A000E945705BC9AC49888EB92E0E091FF02FF27E80F73
:140B5E00F91F0081DDDF8091C902813071F48091CA028130AE
:140B720051F488EB92E0E091FF02FF27E80FF91F00810068B5
:140B8600CBDFBD9AC59A0CE310E00E945705BD9AC59888EBF7
:140B9A0092E0E0910003FF27E80FF91F0081BADF8091C90236
:140BAE00813071F48091CA02823051F488EB92E0E0910003F0
:140BC200FF27E80FF91F00810068A8DFBE9AC69A0CE310E0E3
:140BD6000E945705BE9AC69888EB92E0E0910103FF27E80FE0
:140BEA00F91F008197DF8091C902813071F48091CA02833066
:140BFE0051F488EB92E0E0910103FF27E80FF91F0081006826
:140C120085DFBF9AC79A0CE310E00E945705BF9AC79808957E
:140C2600AA92BA9258018FE097E28A159B0530F40FEF72DF3F
:140C3A0088B3806F88BB7FC087EE93E08A159B0530F528EE98
:140C4E0033E085010E94230A0093010328EE33E085010E9442
:140C6200210A24E630E00E94230A0093000324E630E0850134
:140C76000E94210A2AE030E00E94230A0093FF022AE030E006
:140C8A0085010E94210A0093FE024DDF54C083E690E08A15B8
:140C9E009B0510F580E18093010328EE33E085010E94210AA9
:140CB20024E630E00E94230A0093000324E630E085010E946D
:140CC600210A2AE030E00E94230A0093FF022AE030E08501D2
:140CDA000E94210A0093FE0226DF2DC089E090E08A159B059C
:140CEE00C8F480E1809301038093000324E630E085010E9466
:140D0200210A2AE030E00E94230A0093FF022AE030E0850195
:140D16000E94210A0093FE0208DF0FC080E180930103809328
:140D2A0000038093FF022AE030E085010E94210A0093FE029E
:140D3E00F8DEB990A99008950E941C0AAA92BA922A803B80F7
:140D52004C805D800CEF10E00E94BF0A3A932A931A930A93BA
:140D6600810192010E94C10B0A831B832C833D8381E08093E8
:140D7A00C902CE0102961C0108EF10E00E94BF0A3A922A923C
:140D8E000E94F40C34F40FEFC3DE88B3806F88BBB6C0CE0136
:140DA20002961C0104EF10E00E94BF0A3A922A920E94F40C10
:140DB600ACF500EF10E00E94BF0ACE0102969A938A930E94EB
:140DCA00DD0C0E94CC0B580181E08093CA0228EE33E00E944F
:140DDE00230A0093010328EE33E085010E94210A24E630E0A7
:140DF2000E94230A0093000324E630E085010E94210A2AE011
:140E060030E00E94230A0093FF022AE030E085010E94210AF8
:140E1A000093FE0288DE75C0CE0102961C010CEE10E00E9486
:140E2E00BF0A3A922A920E94F40CACF508EE10E00E94BF0ACB
:140E4200CE0102969A938A930E94DD0C0E94CC0B580182E02C
:140E56008093CA0228EE33E00E94230A0093010328EE33E0F1
:140E6A0085010E94210A24E630E00E94230A0093000324E698
:140E7E0030E085010E94210A2AE030E00E94230A0093FF0280
:140E92002AE030E085010E94210A0093FE0247DE34C004EE41
:140EA60010E00E94BF0ACE0102969A938A930E94DD0C0E94FF
:140EBA00CC0B580183E08093CA0228EE33E00E94230A009327
:140ECE00010328EE33E085010E94210A24E630E00E94230AA7
:140EE2000093000324E630E085010E94210A2AE030E00E943D
:140EF600230A0093FF022AE030E085010E94210A0093FE0227
:140F0A0012DE22242092C902B990A990249608958C9882B3EE
:140F1E00806F82BB08954A934FEF40B3407F403FB1F002E027
:140F320010E00E946F0580B3807F841771F440B3407F80B38E
:140F4600807F803FE1F701E010E00E946F0580B3807F803F29
:140F5A00E1F7042F4991089502E013E0E2D002E013E0D8D0FD
:140F6E0022242AB82BB886E0809395008AB188698AB900E8FF
:140F820015E200C00E94220B580115014424552440E052E132
:140F96006AE770E05A924A923A922A928A019B010E94430A40
:140FAA0040E150E060E070E07A936A935A934A930E94430A8F
:140FBE001801290141E050E060E070E0241A350A460A570ACD
:140FD2005101232C332420929000A9B80C94290B0E94090BE6
:140FE6006901A02E8601C4D0002311F0002704C096010A2DC7
:140FFA00CED001E00C94E30A0E94050B422F5801C884D984B2
:14100E00442379F0EE240AC09601EE2DFF27EA0DFB1D0081BA
:14102200DFDF0023B9F3E394E416A0F30BC09601F501008150
:14103600D5DF0023D1F3F50181915F018A30A9F70C94EF0AB0
:14104A000E941C0A0E940E0B5901229740ED52E082E093E0C8
:14105E009983888324E08A01CDDF850156D00023E1F382E017
:1410720093E09983888324E08A01C2DF8501C2D022960E942E
:14108600130B24960895AA92BA925801850144D0B990A990E4
:14109A0008950E94030BE22EA8012297CC84DD84AA246BECAD
:1410AE0072E080E08E1508F51CC082E093E09983888324E000
:1410C2008B019EDF82E093E09983888324E08B0197DF960178
:1410D60001E0B8DFFA010193AF0182E093E09983888324E04F
:1410EA008B018ADFA394AE1410F30E2D0DC0960101E0A6DFFC
:1410FE00FA010193AF01A394FA01319780818A30A1F70A2D1B
:1411120022960C94F80AF801028108952224F80120822182D2
:141126002282238208952224F801E859FF4F2082E856F040F1
:14113A00E759FF4F2082E956F040E659FF4F2082EA56F04063
:14114E0081E0E153FF4F808308954A935A93F8012280222063
:1411620019F441E050E002C044275527042F599149910895DE
:141176004A935A93F801E659FF4F8081843619F441E050E0FC
:14118A0002C044275527042F5991499108950E940E0BA901AF
:14119E00A02E8A01E9DF002309F02CC05698FA01E153FF4FA9
:1411B2002080EF5CF040222031F0ACB82224E153FF4F2082DD
:1411C6001CC0CA0186599F4FFC0180818F5F8083CA01855909
:1411DA009F4FFA01E759FF4FE081FF27E80FF91FA082475932
:1411EE005F4F14E6FA0100810F5F0E94A70AFA010083569A9A
:141202000C94130B0E940E0BA801AA248A01A3DF0023C1F403
:14121600CA010496FA01E081FF27E80FF91FA0805798CA01F4
:14122A000296FC0180818150808314E6FA0100810F5F0E94C0
:14123E00A70AFA010083579A0A2D0C94130B2A923A920A9362
:141252001A938A939A93EA93FA932FB62A920E94220B42E0F5
:1412660053E06BB1ACB0862F887109F022C0FA018281843688
:14127A0008F01AC0CF010296FC0180818F5F8083CA010496D2
:14128E00FA01E181FF27E80FF91FA082CA0101961C0114E61F
:1412A200FC0100810F5F0E94A70AF101008303C081E0FA0165
:1412B60083830E94290B29902FBEF991E991999189911991B0
:1412CA0009913990299018950E94220B42E053E06BB1ACB0AB
:1412DE00862F887109F022C0FA018281843608F01AC0CF0119
:1412F2000296FC0180818F5F8083CA010496FA01E181FF2779
:14130600E80FF91FA082CA0101961C0114E6FC0100810F5F3D
:14131A000E94A70AF101008303C081E0FA0183830C94290BFE
:14132E002A923A920A931A938A939A93EA93FA932FB62A92E4
:141342004A935A9342E053E080E0FA01E659FF4F2080EA56B0
:14135600F040821508F01FC0CF0185599F4FE859FF4FE08159
:14136A00FF27E80FF91F20802CB8CA0186599F4FFC01808120
:14137E0081508083CA0188599F4F1C0114E6FC0100810F5FEA
:141392000E94A70AF101008305C081E0FA01E153FF4F8083D9
:1413A6005991499129902FBEF991E99199918991199109913D
:1413BA0039902990189522242092740084E6809370002092E5
:1413CE0071002092720084E080937400089584EA80937400F9
:1413E2002090740027FEFCCF08950093730084E8809374004D
:1413F6002090740027FEFCCF000000917100087F089584EC39
:14140A00809374002090740027FEFCCF00917300089584E925
:14141E0080937400089587B3876087BB83E58DB908950FB920
:14143200779BFECF08953A932A931A930A930895689401C0FC
:14144600E894EA92FA928A93EE24FF2480E1000F111FEE1C12
:14145A00FF1CE216F30618F0E21AF30A03958A95A1F716F418
:14146E000E2D1F2D8991F990E9900895E89401C0689430D0F1
:14148200CC2409C0E89401C068942AD037FD0E94420BB7FD93
:1414960052D0772488249924AA24BB2442D0C1F045D0B1F0F6
:1414AA00E8E2000F111F221F331F771C881C991CAA1CBB1C09
:1414BE0088169906AA06BB0628F0881A990AAA0ABB0A0395FE
:1414D200EA9559F726F4082D192D2A2D3B2D13C07A928A92E8
:1414E6009A92AA92BA92CA92EA938A939A93AA93BA938B8581
:1414FA009C85AD85BE85C32E0EF0CB260895C7FC0E94420B19
:14150E00B991A99199918991E991C990B990A990999089906A
:14152200799024960895E02FE12BE22BE32B0895E82FE92B57
:14153600EA2BEB2B089580959095A095B0958F5F9F4FAF4F4B
:14154A00BF4F0895689401C0E8942A93FA92EA92FF24EE24AF
:14155E0020E1000FFF1CEE1CE11610F0E11A03952A95B9F74B
:141572000EF40E2DE990F99029910895EA93FA930A92E02F1A
:14158600F12FD895002D3196D895102D3196D895202D3196DE
:14159A00D895302D0990F991E99108950A921A928A939A93A7
:1415AE00029FC001129F900D039F900D8C01999189911990C0
:1415C20009900895A990B990C990D9900895A990B990C99023
:1415D600D990E990F9900895A990B990C990D990E990F990B3
:1415EA00499159910895A990B990C990D990E990F99049916C
:1415FE0059916991799108957A936A935A934A93FA92EA9272
:14161200DA92CA92BA92AA9208955A934A93BA92AA920895E8
:14162600A990B9904991599108957A936A935A934A9308955C
:14163A00499159916991799108957A936A935A934A93BA9217
:14164E00AA920895A990B990499159916991799108957A93BB
:141662006A935A934A93DA92CA92BA92AA920895A990B9903E
:14167600C990D990499159916991799108950095109520954A
:14168A0030950F5F1F4F2F4F3F4F08950F920990002031F087
:14169E00000F111F221F331F0A94F8CF0F900895689401C008
:1416B200E8940E946C0C0E94FE0B09F448C0E62CD52CC42CDB
:1416C600B32EA22E912E802E00811181228133810E94FE0BDD
:1416DA0009F444C0842D952D8C199D09B9F072F490958095F4
:1416EE0001964C2C5D2C8831B8F53595279517950795019784
:14170200D1F708C0883118F5B594A794979487940197D1F753
:1417160066242EF0080D191D2A1D3B1D09C0801A910AA20A83
:14172A00B30A082D192D2A2D3B2D332322F40E94420B80E8F1
:14173E00682E0E94270C02C00E945C0C0E947B0C0895008119
:14175200118122813381C6F70E94060CA9F380E83827F2CF05
:14176600082D192D2A2D3B2D4C2C5D2C6E2C33233AF70E9471
:14177A00420B80E8682EE2CFFA93EA93EC2FFD2F32960E94A4
:14178E00590BE991F991249608954A925A926A928A930E9405
:1417A2000E0C11F15520E2F08FE14816C0F487E14816D1F0C7
:1417B60058F4419489EE481A05C035952795179507954A94B4
:1417CA00D1F70EC087E1481A000F111F221F331F4A94D1F733
:1417DE0005C03FE7232F132F032F04C0662011F00E94420B0C
:1417F200899169905990499008950FD029F0662011F00E9450
:14180600420B98940895002329F4112319F4222309F433239F
:14181A000895F7DF99F08A93632E80E86822220F331F432E2A
:14182E008FE7481A55248827580A269530E8232B33278991AF
:14184200989408954424552466240895DEDF09F40895AA932D
:14185600BA93D2019A938A938EE790E0332349F03695279519
:14186A0017950795A817B907CCF41196F5CF809590950196A7
:14187E002223BAF0000F111F221FA817B90714F01197F6CFF7
:141892000027112722273327899199912D01B991A9910895AD
:1418A60033270FEF102F2FE7322F899199912D0102C0AA93AF
:1418BA00BA93A7DF49F0D201A158BF4F2D01342D220F3695A9
:1418CE0027953629B991A99108954A925A926A927A928A92DE
:1418E2009A92AA92BA92CA92DA92EA92FA928A939A93089587
:1418F60099918991F990E990D990C990B990A9909990899012
:14190A00799069905990499008950E946C0CAA93BA930E9422
:14191E000E0CE1F1E62CD52CC42CB32EA22E912E802E008127
:141932001181228133810E940E0C71F16E244C0C5D1C80E8CF
:141946004816530664F581E848168FEF58066CF1A29EB12D5F
:14195A00A02D919E912D802DA09E800D911DA31FB31F829EE5
:14196E00800D911DA31FB31F929E900DA11DB31FA19E900D5D
:14198200A11DB31F2B2F1A2F092F880F001F111F221F331F6D
:141996000E94270CB991A9910E947B0C08950FEF102F2FE7CB
:1419AA008FE7482EF5CF0027102F202F302FF0CFFA93EA939C
:1419BE00EA81FB810E948A0CE991F991229608950E94570B99
:1419D20033233AF00E94060C11F001E00895002708950FEF8C
:1419E6000895FA93EA93EA81FB810E94E70CE991F99122960E
:0419FA000023089529
:00000001FF
